:040000006F105056D7
:1000040000000000000000009000002068070020AD
:10001400A9BDF9F520080020000000000000000040
:1000240020080020900000200000000000000000D4
:10003400900000200000000090000020000000005C
:1000440090000020900000209000002090000020EC
:1000540090000020901C0020900000200000000070
:1000640090000020900000209000002090000020CC
:1000740086080020900000209000002090000020BE
:1000840090000020900000209000002090000020AC
:1000940001A04111814601468145114506C6EF0084
:1000A400D02AB727004011472383E780B7F700E041
:1000B400938707D0984B6D9B98CB984B5D9B98CBBF
:1000C4007300501001000100B2404101828001110F
:1000D400814601468145114506CEEF001027B7271A
:1000E400004011472383E780B717004083C6E70227
:1000F40003C5E7041307800893F6C60F136535009C
:1001040093E61600733607801376860832C0010022
:100114000100930570052380B704130680FA238039
:10012400C704010001002382070223800704024858
:100134007328088001000100733807801378880849
:1001440042C2010001002380B7042380C7040100D8
:1001540001002387D7022387A7042380070492463C
:10016400F3A6068001000100F336078093F68608A3
:1001740036C4010001002380B7042380C7040100B2
:10018400010083C6B70493E60602A385D70423803F
:100194000704A246F3A6068001000100B7F600E0BA
:1001A400938606D0884A1365450088CA884A5D99B3
:1001B40088CA730050100100010073370780137759
:1001C40087083AC6010001002380B7042380C704CE
:1001D4000100010003C7B7041377F70DA385E704F3
:1001E40023800704B247F3A7078001000100F2400F
:1001F400056182803971B7F5070022DC81462A84C3
:100204003010E105194506DE02D423160102EF0081
:10021400D013B717004083C6E70203C5E7041307EA
:10022400800893F6C60F1365350093E616007336FF
:1002340007801376860832C6010001009305700515
:100244002380B704130680FA2380C7040100010049
:1002540023820702238007043248732808800100A0
:100264000100733807801378880842C80100010030
:100274002380B7042380C704010001002387D70229
:100284002387A70423800704C246F3A6068001003F
:100294000100F336078093F6860836CA0100010090
:1002A4002380B7042380C7040100010083D607021A
:1002B40071757D15E98E2390D70223800704D246F9
:1002C400F3A606800100010037F500E0832605D17E
:1002D40093E646002328D5D083D607026575110519
:1002E40093F60660C18EC98EC206C182733507803B
:1002F400137585082ACC010001002380B7042380EC
:10030400C7040100010003C5F70013650504A387B2
:10031400A7002390D70223800704E246F3A60680B1
:10032400010001009166758C1DE87337078013770F
:1003340087083ACE010001002380B7042380C70454
:100344000100010003C7B70413670702A385E7048C
:1003540023800704F247F3A707800100010037F761
:1003640000E0832707D1DD9B2328F7D073005010CA
:100374000100010013078008F337078093F787080B
:100384003ED001000100B71700401305700523801B
:10039400A704930580FA2380B7040100010083D6E3
:1003A400070271767D16F18E2390D702238007040D
:1003B4008256F3A60680010001000DEC7337078016
:1003C400137787083AD2010001002380A704238011
:1003D400B7040100010003C7B7041377F70DA38521
:1003E400E704238007049257F3A707800100010064
:1003F4005145DD2EF250625421618280397152D40C
:1004040081462A8A01468145114522DC26DA06DE28
:100414004AD84ED6371400400D2F8347E4020347D1
:10042400E4049304800893F7C70F1367370093E736
:100434001700F3B6048093F6860836C6010001005F
:100444009309700523003405130980FA2300240559
:10045400010001002302040223000404B246F3A6AF
:10046400068001000100F3B6048093F6860836C8BE
:1004740001000100230034052300240501000100CC
:100484002307F4022307E40423000404C247F3A768
:1004940007800100010013055002D128B7F700E0DE
:1004A400938707D0984B1367470098CB73B70480A2
:1004B400137787083ACA010001002300340523009A
:1004C4002405010001000347F40013670704A30790
:1004D400E40023000404524773270780010001004D
:1004E40073B70480137787083ACC01000100230016
:1004F400340523002405010001002167336AEA0062
:100504002310440323000404624773270780010077
:100514000100984B5D9B98CB7300501001000100C3
:1005240081460146814511450D25F3B4048093F4B9
:10053400840826CE0100010023003405230024058D
:10054400010001008347640493E717002303F404C4
:1005540023000404F247F3A7078001000100F250CE
:100564006254D2544259B259225A216182800111F3
:1005740013078008F337078093F787083EC201000A
:100584000100B7170040930570052380B7041306D4
:1005940080FA2380C7040100010083C6B70493F6E0
:1005A400F60DA385D704238007049246F3A606809C
:1005B4000100010093760502D5CEF336078093F649
:1005C400860836C4010001002380B7042380C704D1
:1005D40001000100B70614007D89558D88C701000C
:1005E40001000100010023800704A246F3A606804F
:1005F4000100010073370780137787083AC60100AA
:1006040001002380B7042380C70401000100010016
:1006140001003727004093061005A303D7802380E9
:100624000704B247F3A7078001000100930780087D
:10063400F3B7078093F787083ECE01000100B71790
:100644000040130770052380E704130780FA238012
:10065400E7040100010003C7B70413670708A38573
:10066400E70423800704F247F3A707800100010091
:100674000561828093760504BDC6F336078093F640
:10068400860836C8010001002380B7042380C7040C
:1006940001000100B7061400938606047D89558D78
:1006A40088C7010001000100010023800704C2463D
:1006B400F3A60680010001007337078013778708CB
:1006C4003ACA010001002380B7042380C704010053
:1006D40001003727004093062005A303D780238019
:1006E4000704D24781B773370780137787083ACC5A
:1006F400010001002380B7042380C7040100010026
:1007040098471367070C98C723800704E24719BF6B
:100714000111814601468145114506CE3D219307CD
:100724008008F3B7078093F787083EC601000100ED
:10073400B7170040130770052380E704130780FAF6
:100744002380E7040100010003C76704136717004F
:100754002383E70423800704B247F3A7078001003B
:100764000100F240056182804111814601468145C4
:100774001145E12E13078008F337078093F78708A4
:100784003EC401000100B717004013067005238022
:10079400C704930680FA2380D70401000100FD55A5
:1007A4002396B70223800704A245F3A50580010020
:1007B400010073370780137787083AC601000100E8
:1007C4002380C7042380D7040100010003C7670402
:1007D400136717002383E70423800704B247F3A7B2
:1007E40007800100010001A0BD473305F5020100A7
:1007F4007D1575FD8280411122C426C206C6AA84D5
:10080400014463179400B24022449244410182801F
:1008140005041305803E4204C13F4180DDB700005A
:100824009305000273A0458082457390153492406D
:100834002242B2424243D2436244F24402559255A8
:100844002256B2564257D2576258F2580649964930
:10085400264AB64A464BD64B664CF64C065D965D28
:10086400265EB65E465FD65F096173002030411193
:10087400B7170040985F3AC6945F3247E39CE6FEA0
:10088400324541018280B7170040130700032388D3
:10089400E702854723A4F184730020300347050051
:1008A40097270000938787B6136707FCA382E700A6
:1008B400034715002382E70003472500A381E700CF
:1008C400034735002381E70003474500A380E70081
:1008D400034755002380E7008280411122C4930519
:1008E40065002A845946171500001305154806C6E5
:1008F400971000E0E780205283070400B2402244AE
:10090400998717170000A30DF74641018280011152
:100914001306F10085451305503006CEA3070100E8
:10092400977001E0E78000D497250000938505AE19
:100934000945977000E0E780C0B585471306F100CC
:10094400854513055030A307F100977001E0E78057
:1009540060D1F24005618280411122C426C2138411
:10096400C18406C6971000E0E78060558347040001
:10097400054793840185850793F7F70F2300F40057
:100984006398E700971000E0E780404A2390A400B2
:10099400834704003947858B2300F400B7170040D0
:1009A400238CE704971000E0E78000548397040049
:1009B400B24022443E959307A0413305F5029307C4
:1009C4000020924441013345F502FD779387273B8C
:1009D4003E95420541818280411106C6B53F93860A
:1009E400E18483C706000567130687BB93F7F70303
:1009F4006368A600130607AF6379A60093E70704AC
:100A04002380F600B240410182801307479C63753E
:100A1400A70093E70708EDB793E7070CD5B7411193
:100A240006C622C42A849D3D2285453D2244B24007
:100A34004101F1BD411122C4138441851C4003A727
:100A44000181930617008507B3E7D70206C663C979
:100A540007026347F7021CC0413783C7E1841717B5
:100A640000002304F7301840F1472244B387E7021B
:100A7400B240171500001305E53041013E9545B716
:100A84008147D1BF411106C6EF00E077F5BF2303CC
:100A9400048015472303E48001002302A48082809C
:100AA40083076480E3CE07FE2303048082808307E8
:100AB4006480E3CE07FE034544808280830764801C
:100AC400E3CE07FE2302A4808280411126C44AC2D9
:100AD4004EC006C61377F50BAD47AA892E899544F7
:100AE4006306F70019456537653F8D444E854537E4
:100AF400FD59FD1463983401B240A244124982495D
:100B040041018280135509011375F50F453F2209F0
:100B1400CDB7011126CC06CEB704080051371545D0
:100B2400BD37713769372AC6A53F3245937715001B
:100B340089EB136515001375F50FF240E244056166
:100B44008280FD14E9FC0145CDBF397126DC4ADA07
:100B54004ED852D656D45AD25ED006DE62CE66CC79
:100B6400B7E700E07D5783AA070022C603AA47001F
:100B740023A0E71823A2E718B7170040130770054E
:100B84002380E704130780FA2380E70483C747041C
:100B9400930B75FFB684E20793FBFB0F8546AA8986
:100BA4002E8B328937240040E187015763FA76019E
:100BB4006308D5008946130700026313D500015763
:100BC400D98F93F7F70FB71C00402382FC04114719
:100BD4002303E4801305F00F5D3D094CD135636DAB
:100BE4007C11B7050700DA9537870700795563F25A
:100BF400E504B3879500636EF702370B0800A94735
:100C040033EB65016399F90689E48144513D2685F6
:100C14000DA0DA850945553D05090345F9FFFD1485
:100C2400050B693D81C49377FB0FFDF7DD3569FD45
:100C34007D55B7170040130770052380E704130799
:100C440080FA2380E70403C74704418B2382E70427
:100C5400F250B7E700E023A0571123A24711E25452
:100C640032445259C259325AA25A125B825B724CB4
:100C7400E24C21618280A5476395F90685691309D1
:100C8400F00FB3069900B3742B01B6941349F9FF1E
:100C9400B3749900856B33796901416B9387F9FFCC
:100CA400B3F7270199E363FC340193D94900C147A1
:100CB400E3E637FF99BF0569C1697D19D9B7130503
:100CC400800D6388690113050002638479011305AB
:100CD4001008CA85DD3B353D21DD4E99B38434418E
:100CE400D9B7DA852D45D533CA94E30099F20509BD
:100CF4007D3BA30FA9FED5BF9387F9FF93F7F70FA9
:100D04006361FC0C83C71C0413073008631FF704DA
:100D140037070800636BEB04B3079B00B7061000AA
:100D240063F5D704334BEB0089476393F906898055
:100D3400D549E38C04ECDA850945413B11090327C5
:100D4400C9FF91472320E48003076480E34E07FE34
:100D540023033481FD17EDFBFD14110B81C493773C
:100D6400FB0FE9FF7D3371F5E1B5B717004003C709
:100D74005704B70708001377070219E3B78707007A
:100D84007955E378FBEA33079B00E3FFE7F855B5B1
:100D94008547E382F9F2DA852D45053B9389F4FF13
:100DA400E38504E6293393F7390091EB8326048025
:100DB4000327090093074900E39AE6E43E89CE84B9
:100DC400F1BFB5476396F9001305900BC93135BDE2
:100DD400B1471305B00AE38BF9FE99476391F9040F
:100DE400B7050800B365BB002D45C53181448D4B63
:100DF400A149753963967401832704802320F9007F
:100E04008504E39834FF8327048013172B0163556B
:100E140007002312F900D5BB2322F900FDB39D4737
:100E24006399F90281451305B0044531BD4423207B
:100E3400090023220900FD599D3993F77400CA97CC
:100E440003C70700FD14398D2380A700E39634FF00
:100E54006DBBA1476392F9046D398144630D0B00A6
:100E64008D479304C0036308FB00930400056304E7
:100E74008B01930440041375C507E30895D81945FD
:100E8400393139390545213126850D3909453D3139
:100E94004931E31C05D669BB91476399F9001305F1
:100EA4006006F536F53E130590090DB7E38F09D4B6
:100EB400F154A9BBB7C7004003A7C72023A6072046
:100EC4000F10000001C599C1814711E6B7C7004062
:100ED40023A6E7208280B386F50003C80600B30684
:100EE400F500850723800601E317F6FEC5B737C76B
:100EF40000408327C720232607200F10000019C1B4
:100F040091C111E637C700402326F720828091055E
:100F140003A7C5FF11057D16232EE5FEDDB737C7F0
:100F240000408327C720232607200F10000001C597
:100F34003307C50011E637C700402326F720828017
:100F44000505A30FB5FEE31DE5FEF5B7B7C70040E1
:100F540083A6C72023A607200F100000814733076C
:100F6400F5000307070019E737C700402326D720F9
:100F74003E8582808507E5B7011126CA4AC8B7C7EE
:100F8400004006CE22CC83A4C7202A892E8623A61D
:100F940007200F100000131506019305F00441818A
:100FA40032C6EF0090222A8401C53246CA85193719
:100FB4002285F2406244B7C7004023A697204249E5
:100FC400D24405618280B7C7004003A7C72023A687
:100FD40007200F10000001C599C1814711EAB7C766
:100FE400004023A6E720054582808507E309F6FE35
:100FF4003308F500B386F5000348080083C60600ED
:10100400E305D8FEB7C7004023A6E7200145828048
:10101400B7C7004003A7C72023A607200F1000006E
:101024009307F6FFBE952A966317C500B7C700401D
:1010340023A6E7208280FD1583C715000505A30FAD
:10104400F5FEDDB737C700408327C72023260720D6
:101054000F10000001C53307C50019E637C700406B
:101064002326F7200145828005058346F5FFE39793
:10107400B6FEE31BE5FE37C700402326F7200545EF
:101084008280797197370000938747D422D48043B4
:1010940006D626D24AD04ECE52CC56CA5AC85EC6BE
:1010A40079C0B7C4C901014B97390000938989D12C
:1010B4009384F437173A0000130A8AD1973A000050
:1010C400938A0ACC17390000130909D583572400E1
:1010D40095E35C44631D0B00173700002328F7CE0B
:1010E400832BC4002285EF00301D5E84B9A823261B
:1010F400FB00FDB783A7090082971C443307F54022
:101104006376F500032749001D8F2A9763E2E408FC
:101114009737000023AE07C6835524000345040017
:10112400972000E0E78040C45C405844A1CB0C44C5
:1011340003264900AE97BE8663E4B70063E4C700A4
:10114400B386C74014C4228B3A8449F09737000011
:10115400938707C39C4B05476372F706FD17173740
:1011640000002327F7C2B250225492540259F24984
:10117400624AD24A424BB24B4561828063170B00EC
:101184009737000023A4E7C4A1BF2326EB0089BF3F
:1011940003274A0209CF63EFA7003385A74083A73B
:1011A4000A016376F5009737000023A3A7BE228BBC
:1011B400404461BF03274900BA97C5B79737000079
:1011C40023A807BC4DB797370000938767C49C4397
:1011D40085C3411106C682979737000083C767BE4F
:1011E40089E79737000023A507C2B24041018280F6
:1011F4009737000083C7E7BC91E79737000023A91E
:1012040007C082808280411122C417340000130475
:10121400E4B91C4006C626C24AC091C782979737D4
:10122400000023A507B85C4091C382971C40639CCF
:10123400071C17370000034717D895479734000059
:10124400938404D76301F71C9737000083C787BDD5
:101254008DE383C75400858B89CF83C774001947F6
:10126400631CF70E97370000A38607D499265C44C5
:1012740082971C4491C38297173900001309C9B49B
:101284000327090017360000034696AF973700007E
:1012940083C707AF93961700BA9683D60600E9CAA8
:1012A4009737000083C7C7AD63EEC70C97370000BC
:1012B400238807AC1C406398071483C77400154740
:1012C4006303F7149737000083C717CF91CF83C701
:1012D400740093F7F70F89EB97370000A38E07CCC0
:1012E400970001E0E780A02597370000938787AD3A
:1012F4009C43638A0710973700009387E7B1DC4368
:10130400173700002326F7A8AD3B973700009387D3
:1013140027ACDC53EDCB83C7740015476365F70E28
:101324009737000083C787CD918BF1EF9737000083
:1013340083C727A9E9EB032609009736000083C673
:1013440036A463C8D70C2244B240924402494101F6
:10135400172300E0670083F783C774001D47E31A6F
:10136400F7F097370000A38707C4A1241C4809B7E6
:10137400850793F7F70F973600002383F6A0E3E77A
:10138400C7F039BF86073E9783550700231007002F
:1013940097370000239607A2973700009387C7A0CA
:1013A4009C43173500000345A59D13172500BA97E4
:1013B4009C4382979737000083D787A01737000094
:1013C4000347079C93C7F7FF7D8D931717000327E7
:1013D40009003E97835707005D8D2310A7009737B8
:1013E400000083C7E79991C78507173700002309D1
:1013F400F798173700000347A7989737000083C76B
:101404003798E375F7EAB240224492440249410115
:101414008280139717003297035707006DF78507EB
:101424000DB737C700408326C720B707FCFFFD1759
:10143400F58F2326F7200F100000973700009387BD
:101444002794C84F832787262326D7206A0593C766
:10145400F7FF99835D8D8280011197370000938790
:1014640067C522CC03A4870B26CA06CE2AC42EC67F
:10147400854419E40145F2406244D2440561828006
:101484008347910003471400858B6304F7000044ED
:10149400CDB719469305A100130524002D36E31892
:1014A40095FE0545C9BF173700001307A7AF1443BE
:1014B400411122C49C5E4AC006C6998326C2858B0C
:1014C4003A84173900001309A9ADD1CB930700065C
:1014D4009CDE17370000034707AE930700089734D4
:1014E40000009384E4AC631BF700832709009C434A
:1014F40093F7070417370000230FF7AA83C70400E4
:1015040093F707049DC3973700009387A78B9C43E9
:1015140082979737000023A5A7AA83C7040093F7EF
:10152400F70B173700002305F7A883C7440093F788
:10153400070495E7854717370000A30DF7A69737EB
:1015440000009387A7A89C433707020098C7130796
:1015540000FC97360000238FE6A4D844F8D3184043
:101564001C5F9183858B8DC31C5F93E707011CDF90
:1015740097370000938787A59C4323A207068547D6
:10158400173700002308F7A283270900D8430583EF
:10159400058B19C7D843759BD8C3D843799BD8C347
:1015A400B24022449244024941018280ED3D7300DD
:1015B400203097370000938767A194439737000042
:1015C4009387079F03C70700058B11CB973700004C
:1015D4002382079E97370000A38E079C828003C74F
:1015E4001700058B65F7F85271FF83C75700DDB705
:1015F400173700001307079B032807008327880376
:101604009583858BADEF11C683270803BD83230023
:10161400F6009DC61C43985B4607935767016356C3
:10162400070093E707C0C207C18303970600C207F8
:10163400C18709C7BA970947B3C7E7022390F600E1
:101644008DCD8345150095C99737000083C7A796AC
:1016540093F7070413879500894585C33A95834713
:1016640005000547994593F6F7066398E600E207F7
:10167400E187814563D30700B9452E85828085457E
:10168400EDBF411122C406C61734000013040494AC
:10169400184049E9AE877453FDFE3E85B2859737FD
:1016A400000023880790970001E0E78020D0973757
:1016B40000009387278F9C43B70680009843558F7B
:1016C40098C3D857719BD8D797370000A384078E47
:1016D40097370000A38E078C1C40094798C3B7F7BF
:1016E40000E003A707D16D9B23A8E7D003A707D188
:1016F4005D9B23A8E7D073005010144017370000F7
:101704001307078B83472700858B89EB83473700B3
:10171400858BC1C397370000238E0788B2402244CB
:10172400410182808D476310F5029737000093874B
:1017340067879C43B70680009843558F98C3D85752
:10174400719BD8D75DBF8547E319F5FA5447817774
:10175400FD17F58F5CC70F1000001840B707020093
:101764001CC7930700F8173600002305F684973743
:101774000000938727839C439C439D83858B6397B9
:10178400A700930760197CD354C785BF9307E01B58
:10179400DDBFFC52A5FB59B7411122C41734000028
:1017A4001304C4821C4006C6D8479316D70063D6D8
:1017B400060298479316D70063D106027D57B8D71F
:1017C400172700001307C75B584F0507972600002B
:1017D40023A6E65C3707040098C798470D83058B5A
:1017E4001DC3172700000347C77C136717009726FC
:1017F40000002380E67C130700F897260000238B63
:10180400E67A214798C79847058B09CF1727000028
:101814000347177A1367170097260000A38AE67810
:10182400054798C798470983058B09E798470583B7
:10183400058B31C317270000A30E07769847972618
:1018440000009386E6760983058B6302071003C7BD
:1018540006001367170097260000238BE6741147D0
:1018640098C7172700001307E7731443D856719BD2
:1018740013671700D8D698479316F70063D6060265
:101884009736000083C6468AC18A173700001307BB
:101894006782E1CA034747071367070297360000C8
:1018A4002384E688416798C798479316E70063D274
:1018B4000602172700000347E76F62076187635733
:1018C40007000547972600002386E66E37070200C7
:1018D40098C798479316C70063D706029736000047
:1018E40083C69684858A172700001307A77CC1CA7C
:1018F400034757071367270097360000A386E6823D
:101904003707080098C798479316B70063DD0602A7
:101914003707100098C79727000083C7A75085C7CB
:1019240017270000034737699547630EF700972789
:101934000000938767669C4391C382971840B7075A
:101944001F00BD075CC7B24022444101828003C727
:1019540036001367170097260000A38CE664094736
:1019640001B7834647070946BD8A6388C600034713
:1019740047078D463D8BE317D7F2114705B78346DA
:101984005707918AB5DE0347570713678700ADB73A
:10199400972700009387876398438967938707F4A1
:1019A4007CD3972700009387A7679C4383A60709E6
:1019B400139656006358060083A60709139666001B
:1019C400634406007453FDF28280411122C4B7C7F8
:1019D400004006C603A4C72023A607200F1000005A
:1019E40011C199E5B7C7004023A6872001457DA80A
:1019F40093073500C207C183F19BC207C183130754
:101A040040036369F702172700001307276A084396
:101A1400172700001307076914436392A6021727C8
:101A240000001307E73A185B55DFC207DD8D054553
:101A340002974DBF1727000013070767C9BF035755
:101A440065002DEB035745006366F706B306F740C0
:101A54002146637CD60203280500938687001D8FE8
:101A6400AA966117172600000356E6312392E60072
:101A740023A006012393060014C12312F5001307C3
:101A840086FF972600002390E6302313B5009725A0
:101A9400000083D5452FB387F54017270000231492
:101AA400F72EB7C7004023A687202105B240224461
:101AB40041018280084195B7B7C7004003A8C720F9
:101AC40023A607200F10000001E523A6072182802A
:101AD400972700009387875D03AE070097270000D0
:101AE4009387475C03A307008146F28763F0670C82
:101AF40083A80700636FF50A63EDA80A13878700BC
:101B04006366E50A03D66700216705076317E600E5
:101B140003C7C18C05072386E18C972500009385B4
:101B2400252603D6470003D7650023930700329781
:101B340042074183172500002317E524638AC7035E
:101B4400172500001305455608416303F50203D524
:101B5400660019ED83D7460023A0160121073E969F
:101B640021062392C60097270000239EE720B6870C
:101B74009843630D6702972600009386E6529442C9
:101B84006306D7028356670095E283D6470003565F
:101B940047001843A106B2962392D70098C383D76F
:101BA4006500A10717270000231FF71CB7C70040D3
:101BB40029BFBE86C6871DBF0111972700009387E2
:101BC400674F22CC03A4070C26CA4AC84EC606CEC9
:101BD400AA8413092500854915C083C71400034747
:101BE4003400858B6304F700405CFDB71946930508
:101BF40044004A85EFF02FBDE31835FF2285F240FB
:101C04006244D2444249B249056182804111972716
:101C140000009387274A22C403A4070C26C24AC0A3
:101C240006C693042500054901E82285B2402244F2
:101C34009244024941018280A6851305A40297B00B
:101C440001E0E7800090E30225FF405CF1BF411111
:101C5400972700009387074622C403A4070C26C2D3
:101C64004AC006C693042500054901E82285B2400E
:101C740022449244024941018280A6851305A401AD
:101C840097B001E0E780E08BE30225FF405CF1BF01
:101C9400197106C212C416C61AC81ECA22CC26CE90
:101CA4002AD02ED232D436D63AD83EDA42DC46DEB8
:101CB400CAC0CEC2D2C4D6C6DAC8DECAE2CCE6CE28
:101CC400EAD0EED2F2D4F6D6FAD8FEDA93850184BD
:101CD4008841E700050092402242B2424243D24387
:101CE4006244F244025592552256B2564257D25794
:101CF4006258F25806499649264AB64A464BD64B8C
:101D0400664CF64C065D965D265EB65E465FD65F13
:101D14000961730020300000EFF0EFCA7300000087
:101D240000000000972200009382A20903830200AE
:101D340023800200630F0300F32510342EC097059F
:101D440000009385A5FD73901534EFF0FFA4730094
:101D5400203086DCEFF05FA4E650828000000000B3
:101D6400971100209381C1E917510020130141A963
:101D74001305400097E5FF1F93858528170600206B
:101D8400130606FE63FAC5008322050023A055004E
:101D940011059105E3EAC5FE17B5010013050566B3
:101DA400970500209385C5FB1386018463FAC5005B
:101DB4008322050023A0550011059105E3EAC5FE21
:101DC4001385018497250020938505416377B50029
:101DD400232005001105E36DB5FEFD42739002BC9E
:101DE4008D4273904280930280087390023097E290
:101DF400FF1F9382E22093E23200739052309712D5
:101E040000009382A2A873901234730020302A83B6
:101E140009CA83830500230073007D160503850525
:101E24006DFA8280B717004083C5870503C89705FC
:101E340003C7970593F5F50F1378F80F1367870019
:101E4400A38CE70403C797051377B70FA38CE704A4
:101E540003C7A70513671700238DE704371700404E
:101E64008347A705858BEDFF0565C14637170040FD
:101E74009308F5FF0346A70513661600230DC70450
:101E84000346A705058A6DFE0356C705FD16C2065F
:101E94001346F6FF33761601C182B297E1FEA1071D
:101EA4009183130505801D8DA30C07054205230CA2
:101EB400B70441858280B717004003C777051377BD
:101EC400E70FA38BE7043947238CE7040D47A38C62
:101ED400E70403C7A7051377D70F238DE704828090
:101EE400371700408347A70593E71700230DF7042E
:101EF4008347A705858BEDFF0355C705520551811F
:101F04008280B717004003C7E7040D894111137796
:101F1400C70F498F93068008F3B6068093F68608A8
:101F240036C601000100930670052380D70493068A
:101F340080FA2380D704010001002387E70423806B
:101F44000704B247F3A70780010001004101828022
:101F540041112A830148930E407E130F0019930FF9
:101F640040069318030193D8080163EF1E0113037D
:101F74000019337365028542FD4363F0B20A8D4F45
:101F8400214F930E400689A87D13336EE303930813
:101F9400E016630E0E00336EF3039308D016630845
:101FA4000E009378330093B818009388D816C2981B
:101FB40013980801135808016DB793F81500138E90
:101FC400F5FF6371BF04F908C298139808019315CB
:101FD4000E0113580801C181E391F5FF8545630B98
:101FE4000300B378D50381456386080093753500F3
:101FF40093B51500F105C29513980501135808010E
:102004008945D9BFB3881341C29813980801931521
:102014000E0113580801C1818DB77D163298794697
:102024003307C70213D61700BE0742081358080126
:1020340032976146B3F6C60213068070B386C602B1
:102044003697A166F58F4207D98FB716004003C7AC
:10205400F60213770708A303E1000346710003C7E0
:10206400F60213770708E314E6FE03477100B71678
:1020740000405DCF13078008733707801377870804
:102084003AC401000100371700409306700523008D
:10209400D704930680FA2300D70401000100232A01
:1020A40007038346170393E60608A308D702230011
:1020B40007042247732707800100010011663717C0
:1020C40000407D16545B4C5FAD8EF18EE5FE9306A9
:1020D4008008F3B6068093F6860836C60100010030
:1020E400930670052300D704930680FA2300D704CF
:1020F400010001005CDB8347170393E70704A3088F
:10210400F70223000704B247F3A707800100010088
:102114004101828003C7F60213770708A303E10095
:102124000346710003C7F60213770708E314E6FEBB
:102134000347710065D33DBF4111B7170040985F55
:102144003AC6945F3247E39CE6FE32454101828001
:10215400914763EAB70897B70100938767C68A0572
:10216400BE9598413E97B71700409387470B028767
:1021740094431345F5FF37170040E98E94C3930643
:10218400070B9C42E98F9CC29307070A9843798DF9
:1021940088C3828090439346F5FF37170040758EBD
:1021A40090C31306070B1C42C98F1CC29307070A6E
:1021B4009843F98E94C38280944337170040C98EA4
:1021C40094C39306070B9C421345F5FF65BF9443E4
:1021D4001347F5FF758F98C3B71700409387070A15
:1021E4009843498F98C382809843498FEDB79147AC
:1021F40063EAB70897B701009387C7BD8A05BE9500
:1022040098413E97B71700409387470D0287944340
:102214001345F5FF37170040E98E94C39306070D65
:102224009C42E98F9CC29307070C9843798D88C31D
:10223400828090439346F5FF37170040758E90C314
:102244001306070D1C42C98F1CC29307070C984341
:10225400F98E94C38280944337170040C98E94C387
:102264009306070D9C421345F5FF65BF944313473E
:10227400F5FF758F98C3B71700409387070C9843F1
:10228400498F98C382809843498FEDB7797122D4DE
:102294003714004026D24AD003592402835404023E
:1022A40006D64209C2044ECE52CC56CA135909016D
:1022B400C1802DE11379F9F793F4F49F4209C20424
:1022C40013590901C18093078008F3B7078093F776
:1022D40087083EC401000100930770052300F4043D
:1022E400930780FA2300F40401000100231124035E
:1022F4002310940223000404A247F3A707800100DB
:102304000100B250225492540259F249624AD24A0C
:1023140045618280B7F5070081463000B105194553
:1023240097F0FF1FE780608222478967F98FF1FBEE
:102334001369090893E4044093098008F3B70980FA
:1023440093F787083EC001000100930A700523003B
:102354005405130A80FA23004405010001002311E7
:10236400240323109402230004048247F3A7078064
:1023740001000100294597E0FF1FE780E046F3B91B
:10238400098093F989084EC2010001002300540515
:1023940023004405010001008357040293E707204A
:1023A4002310F40223000404924781BF37E700E0BE
:1023B4001C435443A183E206D58F1CC1FD5723203F
:1023C400F7182322F718828013178500B7E700E077
:1023D40023A0E710618123A2A7108280B7F700E051
:1023E4008847CC47828041119397050122C406C6D1
:1023F40026C2C1872E8463DC0700592B11C1F12941
:102404002165218DB240224492444101828093F798
:10241400150013C51500FDF7916433F595007DD1C2
:1024240013060064916503C54184EF00502A258C8E
:10243400131504014181F9B71D71494697B501008F
:102444009385859A17B50100130505B986CEA2CCEC
:1024540097F0FF1FE78020B711E101A037F700E0F4
:10246400795610CBFD5654CBB7E700E0056423A0A2
:1024740087109306F00214C323A0871801000100FB
:10248400170700201307078A23A0E1844157A38A72
:10249400E7401306C0038145480897F0FF1FE78013
:1024A40000A897070020938767083ECA8967938727
:1024B4000780231CF100ED472312F1029547A30185
:1024C400F10285472303F102930754D12314F10247
:1024D400B7F5070097070000938787F03EDA814637
:1024E40097070000938707167000E10519453EDC45
:1024F40097E0FF1FE7806065B2473ED6835701012E
:102504002318F102D24789C78357810163F38700F7
:1025140001A04808EF10800911C101A0F6406644EB
:1025240025618280411117050000130505EC06C6DC
:10253400EF1000042382A184B120B240410151A2D2
:10254400411193078008F3B7078093F787083EC6C5
:1025540001000100B7170040130770052380E7044A
:10256400130780FA2380E70401000100C8DB2380FD
:102574000704B247F3A707800100010023A40184E4
:1025840041018280797106D613078008F3370780EA
:1025940093F787083EC401000100B7170040930574
:1025A40070052380B704130680FA2380C704010052
:1025B400010083C6F70293F6D60FA387D7022380C0
:1025C4000704A246F3A606800100010073370780C2
:1025D400137787083AC6010001002380B7042380DB
:1025E400C7040100010003C7F70213675700A3875C
:1025F400E70223800704B247F3A707800100010024
:10260400814701478146054685451305407E893249
:1026140008084146814597F0FF1FE7804090B707BF
:10262400C0A83ECAB78732003ECC080897E7FF1F10
:102634009387E7233EC8EF100025B250456182809E
:10264400011122CC06CE930740031304C5FC63E7B3
:10265400A7003704C0A81304C4FC2A946800B93343
:10266400E13CB307A4406376A400B707C0A8A297CF
:10267400898F3747F6A69387F7FD1307F7C5637A63
:10268400F700324509448933F240228562440561EA
:102694008280228575353245053B03A4818405E09B
:1026A4001165690597E0FF1FE780C0B405459138BF
:1026B40061342AC45134A247E30EF5FEF1B70D4448
:1026C400E1B7411113078008F337078093F78708B0
:1026D4003EC401000100B717004093057005238034
:1026E400B704130680FA2380C7040100010083C6DF
:1026F400E70093E686002387D70023800704A246D9
:10270400F3A606800100010073370780137787085A
:102714003AC6010001002380B7042380C7040100E6
:10272400010003C7170313670702A388E702238086
:102734000704B247F3A7078001000100B7E700E0F0
:102744003707001023A0E7104101828082804111E5
:102754009397050122C406C6C1872E8463DD070052
:1027640003C5D184352411C18D2A2165218DB24040
:1027740022444101828093F715009DCF1705002064
:10278400130505C8EF30212017F7FF1F1307475F14
:1027940093070003FD560306075411CA23A8F180CA
:1027A40097E0FF1FE780002913451400C9B7FD1700
:1027B4001117E392D7FEEDB713F525004DD937B6BF
:1027C4000701130606C0894503C5D184092797E08C
:1027D400FF1FE780202697F6FF1F938666587D46E5
:1027E40085450145EF4090011345240049B7011187
:1027F400170500001305E5F506CE22CC26CAEF0026
:1028040030571384D18485472300A400A306F10024
:102814001306F1008D4785451305C0302307F100E9
:10282400A3070100EF4091631306D100854513050A
:102834005030EF40B1621306E10085451305803046
:10284400EF40D16117F6FF1F13068651FD451305AE
:102854006030EF40B1608564938504C80D45EF2076
:10286400101D938504C81145EF20701C0345040016
:102874008545FD21034504006244F240D244130619
:10288400007D89450561A1A54111054506C6FD3AAE
:102894001305800497E0FF1FE78060CD85457D55D3
:1028A400EFF01F8B85457D5599327936A539EF5068
:1028B400C10C353F97E0FF1FE780C01C23AC05FE29
:1028C4001C4191E7010001000CC18280BA8703A773
:1028D40087FF6DFF23ACB7FE8280411122C426C25C
:1028E40037C4004006C68324C420232604200F10C6
:1028F400000009E9232694201545B240224492445D
:10290400410182800347E5FF9307F00F6306F70058
:10291400232694201145D5B797F0FF1FE780C019EF
:10292400014523269420D1BF411126C24AC0B7C411
:10293400004006C622C403A9C42023A604200F1005
:10294400000009E923A62421B2402244924402490A
:10295400410182809565938505D0C98D2A8421051E
:10296400C2054205C181418197F0FF1FE780E00560
:1029740001CDFD5723200500231285002303F50014
:1029840023A624212105C9B723A6242101456DBF0F
:10299400411126C2B7C7004006C622C483A4C7207B
:1029A40023A607200F100000971700209387C73C29
:1029B400904301440147B28791E711E8A165EF0014
:1029C400007A35A083C6E7FF639DA60221C0832653
:1029D40084FF631FC40217170020232FD7387D57A5
:1029E400232C04FE230FE4FEF1DBA165952E228542
:1029F400B2402244B7C7004023A697209244410125
:102A0400828011E03E8783A787FF7DB73E84E5BFC0
:102A1400232CD7FEE9B7411126C24AC0B7C40040EF
:102A240006C622C403A9C42023A604200F10000054
:102A340089E523A62421154515A02A84971700208B
:102A440083C7D7332E856375F400894763EE870007
:102A54006935B7C7004023A627210D45B24022445B
:102A6400924402494101828083A785FF99E703C705
:102A7400E5FF9307F00F6308F7008535B7C70040FB
:102A840023A627214DBF238F85FE1715002013058C
:102A9400A52E2D35A1652285E124014523A62421F7
:102AA40075BF9717002023A9072C82809717002051
:102AB400938787319C4399E33E85828003D727001F
:102AC4006316B70003C70700E308A7FEDC47E5B7B2
:102AD400C9C1797122D406D626D24AD04ECE014439
:102AE4004147B3D78540858BA5C31205314722954D
:102AF4003305E502971700209387073103A90700E0
:102B04008544B3948400C204C180BE892A990327F2
:102B1400090011C7032549002EC60297B245314763
:102B24003304E40283A709003E941C4489E723206C
:102B3400090023220900B2502254A58D025992544F
:102B4400F2492E85456182800504E31CE4F8814442
:102B5400DDB72E85828041111397050122C406C674
:102B640026C24AC041872E84635E0700153511C111
:102B7400AD33A1673D8C2285B24022449244024980
:102B840041018280EDD9AA8701474146B356E4400A
:102B9400858A8DCE9207BA97B146B387D702971626
:102BA40000209386662603A906008544B394E400B6
:102BB400C204C1803E9983270900032549008297F6
:102BC4002320090023220900258C75B70507E31F7C
:102BD400C7FA8144D5BF411126C2B7C7004006C613
:102BE40022C483A4C72023A607200F100000971730
:102BF40000209387A71D9C531384418199C7829712
:102C04001C403E9523AAA18039A0971700209387E2
:102C1400271B9C43EDF71C40374703001307D73F9E
:102C2400B387E70237A72600130737ECB240BA97F9
:102C340023AAF180B7C7004023A697200840224466
:102C4400924441018280797126D2B7C7004006D6EA
:102C540022D44AD04ECE52CC56CA5AC85EC662C49A
:102C640083A4C72023A607200F10000005E123A694
:102C740097200945B250225492540259F249624AAB
:102C8400D24A424BB24B224C4561828097170020B6
:102C9400938707139C43BA8A368AB28B2E8BAA89F0
:102CA4008297971700209387271698433E890144FB
:102CB400B146C147330CD40233068701104241EABE
:102CC400C165938505F0414597F0FF1FE780E0CF8C
:102CD40005E1971700209387670F9C5B81C78145A7
:102CE40011458297B7C7004023A697202D4559B7B1
:102CF400971700209387470D984331E797170020D3
:102D040023A4A70C230005008327090005473317D4
:102D1400870023260500232475012311E5002322BF
:102D24005501E29723A0370123A2670123A4570189
:102D340063040A0023008A00B7C7004023A6972033
:102D440001450DBF3E875C47F5FF48C765BF0504D5
:102D5400E312F4F6B7C7004023A69720214519BF14
:102D6400B7C7004083A6C72023A607200F10000082
:102D740017170020034797006373E5021716002016
:102D8400130646041317150008423A950357050025
:102D9400D98D2310B50023A6D7200145828023A610
:102DA400D7200D458280B7C7004083A6C72023A63D
:102DB40007200F10000017170020034737FC637526
:102DC400E502171600201306E6FF13171500084244
:102DD40093C5F5FF3A9503570500F98D2310B50007
:102DE40023A6D7200145828023A6D7200D458280C3
:102DF400011126CA37C7004006CE22CC4AC84EC6A7
:102E040052C48324C720232607200F100000130771
:102E140005FF1377F70FFD4763E5E70AB146B306ED
:102E2400D50297170020938727FE984336971C43B3
:102E3400C9CB135A450005443D893315A400131426
:102E4400050141802E895285A2858D31AA8929CD1B
:102E5400A2855285893F97170020938767F69C4384
:102E640082979717002083D767FB338727032A8429
:102E7400814613060064B3B7270313050732B3353D
:102E8400E500BE95EF909138B307850097160020B2
:102E9400938646F83E87D44263E4A70063E4D700F0
:102EA4003387D74023A4E900B7C7004023A697205F
:102EB4000145F2406244D2444249B249224A056182
:102EC4008280B7C7004023A697200945DDB77971F2
:102ED40026D24ECEB7C4004006D622D44AD052CC15
:102EE40056CA5AC85EC683A9C42023A604200F105C
:102EF40000009717002083C777E8637AF5009717D7
:102F040000209387E7EB83AB070063970B00B7C7F9
:102F1400004023A63721A9A0171B0020130B8BEF19
:102F2400832A4B00B74736FE938707C82E8A971526
:102F3400002083D5A5EEBE9AB387C5022A843289C0
:102F44008146B3B5C50213850732B337F5001306BE
:102F54000064BE95EF90912B63F0AA0223A634215E
:102F64000145B250225492540259F249624AD24A5B
:102F7400424BB24B45618280829B9715002083D5DA
:102F8400E5E9B3872503AA84130600648146B3B533
:102F9400250313850732B337F500BE95EF9011274B
:102FA400B3079500BE8403274B0063E4A70063E4E2
:102FB400E700B384E740D2852285CD3C01C904C52E
:102FC400B7C7004023A63721054561BF936504F0C8
:102FD400C205C181414597F0FF1FE780009F19E9B1
:102FE40097170020938787DE9C5B95D3A2851145B4
:102FF400829731BF97170020938707DD9C439DE399
:103004009717002023A2A7DC85472326050004C5C3
:103014002311450123008500A300F50023220500A8
:1030240045B7BA87D84775FFC8C7F9BF79714ECE7F
:10303400B7C7004006D622D426D24AD052CC56CAAC
:103044005AC85EC662C466C26AC083A9C72023A6E2
:1030540007200F10000035C141443689B28A2E8AF8
:10306400AA84B14C171B0020130B0BDA054D130C6B
:103074000003B30B940303270B005E971C43B9EFC3
:103084009375F400B315BD0013554440C20556862C
:10309400C1811375F50F253D31C183270B00DE97E0
:1030A40084C323A247016304090023008900B7C72E
:1030B400004023A63721014521A023A63721094535
:1030C400B250225492540259F249624AD24A424BB3
:1030D400B24B224C924C024D456182800504E31AA6
:1030E40084F9B7C7004023A637212145D1BF011178
:1030F40022CC26CA4AC84EC6B7C7004006CE03A98A
:10310400C7202A84AE89B28423A607200F100000AA
:103114007D3B2285CE85593A2A8405C59715002022
:1031240083D5C5CFB3879502130600648146B3B532
:10313400950213850732B337F500BE95EF90110D54
:1031440048C013351400F2406244B7C7004023A6B8
:103154002721D2444249B2490E05056182800111FA
:1031640022CC4AC84EC6B7C7004006CE26CA83A999
:10317400C7202A892E8423A607200F100000EFF011
:10318400FF92AA8419C123110500A2854A85213919
:103194009717002083C787BE639B270197170020DA
:1031A40083D7C7C15D8C97170020239987C0B7C701
:1031B400004023A63721014591E01945F2406244BD
:1031C400D2444249B24905618280011126CA4AC8E3
:1031D400B7C4004006CE22CC4EC603A9C42023A601
:1031E40004200F1000009307F00263E8A704B1471E
:1031F4003304F50297190020938909C183A70900B4
:10320400A2979C439DCB9377F5008545B395F50034
:10321400C205C1811181A13783A709000145A29785
:1032240023A0070023A2070023A62421F24062441E
:10323400D2444249B24905618280B7C7004023A6FF
:1032440027210945E5B7411126C206C622C4B7C7DE
:10325400004083A4C72023A607200F100000EFF02E
:10326400FF8419E90145B2402244B7C7004023A6B0
:10327400972092444101828097170020938747B496
:103284009C4300458297971700209387A7B86368EB
:10329400A402D843B74636FE938606C83305A44035
:1032A4003697E371E5FC13070064B335E50203D6F2
:1032B400870081463305E502EF9041756DB7D84329
:1032C4003A94C1BF0111680006CE22CC26CAEFC0D1
:1032D400701AFD57630BF50AB247DDC39717002038
:1032E400938747B397140020938444A99448D84300
:1032F4003E846387E60297170020938767AC9C435C
:103304008297B247984863F3E7003E87B307A70064
:103314003E85544063E4E70063E4D7003385D74037
:1033240017140020130484C81C4C81CF9717002065
:103334009387C7CE94433707CDFF7D179C46F98FFB
:103344009CC611E5971700209387C7ACC84397170D
:1033540000209387A7A7DC53829719E51C4C8DC3E3
:10336400EFE0D016EFD0F06B1C4C99CB97170020F0
:103374009387C7CA9843B70633001C47D58F1CC729
:10338400F2406244D2440561828097140020938401
:10339400E49E171400201304E4A794485840971798
:1033A40000209387E7A19C436393E60282975440ED
:1033B400B74736FE938707C8B6973387A7003A8581
:1033C4006364F700E36ED7F43305D74091BF829767
:1033D40094485840B387A6003E8563E4D700E3E1F0
:1033E400E7F43385E7402DBF411106C69717002047
:1033F40023A0A7A20295B2409717002023ACA79858
:10340400014541018280914763E9B7008A05971716
:10341400002093876799BE9588C182809717002002
:1034240023A6A79E11C58547171700202309F798DF
:103434008280411151468145171500201305C59618
:1034440006C69717002023A107989717002023A1E9
:10345400079C9717002023A5079697170020238021
:1034640007969717002023A3079A97E0FF1FE7808A
:1034740000AB130680028145171500201305059043
:1034840097E0FF1FE780A0A9EF40E15897170020BD
:1034940083C7179513D527008D8B3E958D4733052C
:1034A400F502854539051375F50F97170020238814
:1034B400A78C99473305F5021305052497E0FF1FF0
:1034C400E780A050171700202320A79459CD9947CF
:1034D400171600200346A68A3306F6028145130612
:1034E400062497E0FF1FE78080A3971700209387A7
:1034F400A7919C4393870724171700202324F78A56
:10350400171700200347A7870A07BA971717002041
:10351400232AF78AEFF0EFD8A92997170020938779
:10352400678894439717002083C75785139727000C
:10353400369717F6FFFF1306E65910C313871700D3
:103544001377F70F0A07369717F6FFFF1306E6609F
:1035540010C313873700890793F7F70F8A07971566
:103564000020A38DE580B69790C3B24041018280CC
:103574009717002083C797801717002003472780D9
:1035840063F3E702171700201307C78118439386D4
:10359400170017060020A303D67E939627003697BC
:1035A40008C33E8582809307F00FE5BF1C41638208
:1035B400071441777D8FB70600208947631CD71213
:1035C4000357450063080712411122C419462A848F
:1035D4009305F00F610506C697E0FF1FE78080A6FC
:1035E40005478D476302E5101C4491C75858994715
:1035F40065CF185C75CB1306C00381451705002001
:103604001305C57C97E0FF1FE78060911306C00394
:10361400A285170500201305657B97E0FF1FE7804F
:103624006089170700200357277B9707002093879B
:10363400E77919E71307001097060020239EE67820
:10364400170700200347677911E70547970600200D
:103654002385E678170700200357477811E76D475D
:1036640097060020239CE676170700200347F77689
:1036740011E7154797060020A381E6761707002077
:103684000347E77511E70547970600202389E67489
:10369400170700200347B77419E703C7F700970615
:1036A4000020A38EE672170700200347677311E713
:1036B4005547970600202385E6720347640119E7FE
:1036C4001307C00397060020238DE6709C5791C70B
:1036D4008297970700202397A76AFD5717170020A2
:1036E400A300F79AB9338147B24022443E85410191
:1036F400828089473E85828001114EC69709002049
:103704009389497183A7090006CE22CC26CA4AC8E8
:1037140052C4829713090064B335250303DA890080
:103724008146528633052503EF90412E97070020EA
:103734009387C764804FAA84014563069402338546
:103744008440636E940003A5490052868146B335D4
:10375400A9023305A902EF90612B018D26959707E5
:10376400002023A99762F2406244D2444249B249FC
:10377400224A056182809707002083D7476A514710
:103784001D45637CF702794719456378F7021307EF
:10379400200315456373F7021307B0041145637ED4
:1037A400F700130740060D456379F7001307600916
:1037B40009456374F70013B5B70F8280011122CC59
:1037C40006CE2A842EC6EFF00FC1B245F240818D99
:1037D40033A5A502229562441375F50F0561828015
:1037E400011122CC06CE2A842EC6EFF0CFBEB245FC
:1037F400F240818D33A5A5022295624442054181A0
:1038040005618280011122CC06CE2A842EC6EFF0F7
:103814008FBCB245F240818D33B5A5022295624436
:1038240005618280970700209387475A985739CBC0
:10383400411122C426C206C6BE840297170700207F
:10384400035747542A8415CBBA876373A700AA8702
:10385400C207C183BA866373E400A286C206C1822A
:10386400958F5147635BF700DC5491C38297EFE077
:10387400E02E9707002023978750B24022449244B9
:103884004101828082809707002083C7675999C7C6
:10389400054582800545F240056182809707002036
:1038A4009387C752DC57011106CEAA8581C72AC661
:1038B4008297B245ADCD9C41F1DFDC41E1DF83D796
:1038C4008500E9DB83D7A500F1D741461705002021
:1038D4001305455497D0FF1FE780C05D970700206C
:1038E400938747539C4317070020232BF74C9707D4
:1038F400002083C7174F8DE79307805717050020D3
:103904000355C5513305F50237460F001306062447
:1039140081468145EF90810F97070020A383A74C30
:1039240017050000130585DDC1340145ADB79707C0
:10393400002023A3074697E7FF1F938787AE170747
:1039440000202329F74C7D579707002023A6E74C36
:10395400B7873200938727A19706002023A0F64C4F
:1039640097070020238E074AB7C7004023A4E72601
:10397400B5B7011122CC17040020130424450844D0
:1039840006CE26CA4AC801E90545F2406244D2443B
:103994004249056182805C58E5DB185C75D770008C
:1039A400854582971844B247E300F7FE9305E00487
:1039B400170500200355454297E0FF1FE780E0000C
:1039C40017070020232CA73C61D1170600200356BB
:1039D400A6409305F00F97D0FF1FE7804054814421
:1039E40017090020130989399707002083C7E73E88
:1039F4000326090263C1F402328597E0FF1FE780C2
:103A0400A00B01459707002023AA07389707002039
:103A140023A807389DBF9705002083D5E53BB387CE
:103A240095020844185C898185043E9508C2029772
:103A340065BF011156C2970A0020938A2A3983A7C9
:103A44008A0022CC4AC84EC606CE26CA52C45AC0E0
:103A5400AA892E8432896386072203A74A0363094D
:103A640007141307F01F6367A714970400209384B7
:103A7400E43003AA040263170A0A9565938515E0E6
:103A8400170500200355453597E0FF1FE780E0F355
:103A94009707002023A4A7302A86630B051083A769
:103AA4004A0303A58A009705002083D5E53289815E
:103AB400829783A78A0003AA040217070020232100
:103AC400F72E8947639CF908C1476313F40E9705E1
:103AD400002083D56530938505FC9147B3C5F50275
:103AE4008A05D29503C725009307A005631EF70A2C
:103AF40083D70500639A370B4A852286910597D0B0
:103B0400FF1FE780203B9C50528563934715014576
:103B1400F2406244D2444249B249224A924A024B98
:103B240005618280D850E38EE7F89565938525E09A
:103B3400170500200355452A97E0FF1FE780E0E8BA
:103B44002A8A3DC52A8683A74A0303A58A009705C6
:103B5400002083D5652889818297A5B78D47639D09
:103B6400F900C1476316F4049705002083D5C526E0
:103B7400938545FDF199B5B79147639AF9006319A7
:103B840034039705002083D52525A115E5B79307B0
:103B94000010639FF900A14763EC8700970500209C
:103BA40083D58523C115F9B79C5052856396470D7B
:103BB4002945B9BF1D6A568B6371450B130A05E08D
:103BC4001947334AEA02170700200357E720970AE8
:103BD4000020938AAA1A330AEA023E9A83A74A0269
:103BE4006395470183A40A029DE49305E004170545
:103BF40000200355651E97E0FF1FE78000DDAA84BF
:103C040045D983274B039705002083D5E51C2A86D5
:103C140089815285829791451307A00589819397DD
:103C24002500A69783C627006393E60483D607007E
:103C3400639C360385058A052286A6954A8597D016
:103C4400FF1FE780202783A70A02E38297EC2685DB
:103C540097E0FF1FE78040E65DBD21677917E369C0
:103C6400A7F4330A454185B783C5370045BF83A709
:103C74000A02E38F97F2268597E0FF1FE780C0E3EF
:103C840005BF970700209387670F8C5395D1914701
:103C94009306A0058983139727002E9703462700D0
:103CA400E318D6F003560700631C360185078A071C
:103CB4002286BE954A8597D0FF1FE780A01F81BD4D
:103CC40083473700C1BF9707002093872710984781
:103CD40039C79C5FA9C705476313E504411122C492
:103CE4001704002013048409105006C60DC648505A
:103CF4009705002083D5450E89818297085097E067
:103D0400FF1FE78060DB9707002023A907089707B8
:103D1400002023A70708B240224441018280828008
:103D24000111170700201307670A4EC6832987006D
:103D340022CC26CA4AC806CE52C456C2AA842E84AD
:103D44003289638B09201C5FBA8A99EB2945F240BA
:103D54006244D2444249B249224A924A056182806D
:103D64005C5BEDD79307F01F63EAA70E9709002069
:103D74009389C90083A70902B1CB03A58A0083A74D
:103D840049026395A70689476393F408C147E31F73
:103D9400F4FA17050020035525049147130505FC83
:103DA4003345F5029317250003A509022286CA8527
:103DB4003E959307A0052301F500231095001105F6
:103DC40097D0FF1FE780000F014551B79305E0042A
:103DD400170500200355450097E0FF1FE780E0BE6C
:103DE4009707002023ACA7FA49F98DB783A74A03A4
:103DF40003A609029705002083D505FE89818297D1
:103E040083A78A0017070020232CF7F8ADBF8D473E
:103E1400639EF400C147E31BF4F217050020035529
:103E2400A5FB130545FD9377C5FFBDBF9147639A75
:103E3400F400E31D94F0170500200355E5F921155E
:103E4400DDB793070010E393F4F0A147E3E087F0B4
:103E540017050020035545F84115F1B79D676379AF
:103E6400F506930705E01947B3C7E70217070020D3
:103E7400035787F6170A0020130A4AF0B387E702AC
:103E8400BE9983270A02A1CF83274A026399370781
:103E940003250A0291461308A0059305F00F93D752
:103EA4002600139727002A9703462700631F060757
:103EB400835807000346370063959806B306D64037
:103EC40063CF860485078A072286CA853E95CDBDC1
:103ED40021677917E36CA7E6B307F54041BF930563
:103EE400E00417050020035525EF97E0FF1FE78046
:103EF400C0AD9707002023A3A7EA59F581BD83A786
:103F04004A0303260A029705002083D5E5EC89813C
:103F14004E8582979707002023A437E995BF231085
:103F2400B70093160601C1829DBFB38586001706AC
:103F34000020035666EA9105130606FCE3F8C5E083
:103F440013063400719A1106B29623010701231057
:103F54009700A301D700BDB797070020938707E216
:103F64009453BE89A9C203A5090291461308A0056A
:103F74009305F00F93D72600139727002A9703463B
:103F84002700631806058358070003463700639823
:103F94009800B306D640E3D786F22310B7009316F1
:103FA4000601C182C1BF8357C7001705002003451E
:103FB400C5E29305E0043305F5024205418197E02B
:103FC400FF1FE78080A09707002023A9A7DC41FDFD
:103FD400B5BB17060020035626E09705002083C5CD
:103FE400C5DFB385C502338686001106E3E0C5D676
:103FF40081BF01458280011106CE2EC6EF70300EBE
:1040040001C9B245F2400355250005616FB0102483
:10401400F240494505618280A3800188238001889C
:1040240023A4018623A6018623A8018623AA018648
:1040340023A2018623A0018697070020938787E0A7
:10404400930640382391D702F1761307400B9386E9
:1040540006B82391E7002392D70211679D46130601
:1040640000059305000A1305007D2392E7002393BE
:10407400D70241478546130810F82395E700239695
:10408400E7002399E700239AE700239BE700239C9A
:10409400E7002394E702239007002393B7002394B7
:1040A400B7002397C7002398C700239DA700239E2A
:1040B4000700239F0700239007022395D702239626
:1040C4000703239707029308F00723980702239214
:1040D400E7042393E704239FE7042390E70623914F
:1040E400E7062392E706239917031307C01C239AB4
:1040F400D702239BD702239C0702239D0702239EFA
:104104000702239F0702239007042391D7042394D3
:104114000704239507042396D7042397C7042398F9
:10412400C7042399A704239A0704239B0704239C09
:104134000704239DC704239EC7042393A70623943F
:10414400070623950706239607062397B7062398A1
:10415400B70623990706239AE7065147239DE706E6
:104164007D57239B0706239C0706239ED706239F80
:104174000706239007092391E7088280011126CAC4
:10418400AA84214522CC06CE2E8432C636C43AC235
:10419400EFE08FF91DC9A24612473246930700FD8E
:1041A4002300F5009947A30095002301F50023039C
:1041B400D500A303E5002312C500AA852285624425
:1041C400F240D24405616FE01F85F2406244D2445C
:1041D4000561828023A4A186828023A6A186828091
:1041E40023A8A186828023AAA1868280011122CCE1
:1041F4004AC806CE26CA2A890144B30489006368E2
:10420400B400F2406244D2444249056182802EC621
:10421400EFE07F9C93170501C183A183B2452380FE
:10422400F4009307140093F7F70F850463F9B700BC
:10423400CA9709042380A7001374F40F7DBF3E843A
:104244007DBFC16717050020035525BEFD17630414
:10425400F502411117060020034686D29385818713
:1042640006C6EF70C045B240FD5717070020231E55
:10427400F7BA41018280828009C925151375F50FAB
:104284001335850E134515008280014582802390E5
:104294000500C9C6797122D426D24ECE52CC5AC852
:1042A40006D64AD056CA5EC63684328AAE892A8B6E
:1042B400814463F34407B307940083C70700138959
:1042C40014004209939A070193DA0A011359090168
:1042D40063840A04CA976341FA04B307240183CBB5
:1042E40007005E85513F0DC99387FAFF2390F900BB
:1042F40063906B03130519002295B2502254925413
:104304000259F249624AD24A424BB24B4561828019
:10431400D694C204C18071BF0145C5B701458280EE
:10432400411126C2AE8422C49707002023A6C7B039
:104334009707002023A0B7B09707002023AAA7AEB1
:104344002A8441469305F00F26854AC006C60549CE
:1043540097D0FF1FE78000CF631025059707002043
:10436400938747AC884BC145513541469305F00FBF
:10437400228597D0FF1FE780E0CC8544631895021F
:104384002244970700209387E7A9B2409244024948
:10439400C847C145410199BD41468145268597D00D
:1043A400FF1FE78020CAE31225FD4DBF414681452A
:1043B400228597D0FF1FE780E0C8E30395FCB24055
:1043C40022449244024941018280411122C426C2FE
:1043D4002E84AA84130600028145170500201305C4
:1043E40065A406C697D0FF1FE78060B39707002037
:1043F400A38B97A297070020238687B8EFB00067A6
:10440400854719C181474945B24022441707002016
:10441400230AF7A0924441018280814781CD19C9C2
:104424008547631BF50083C7550093E707FCA38208
:10443400F50085473E85828089476317F50083C769
:10444400550093F7F703E5B70D478547E314E5FEF9
:1044540003C755001377F70313670704A382E50026
:10446400D1BF81478DC105C103C755009306000C18
:1044740085471377070C6308D700930600048D471C
:104484006303D70089473E858280411122C4005DC1
:1044940006C626C21DC8AA84085009C597D0FF1FA6
:1044A400E7808061485009C597D0FF1FE780C0604E
:1044B400085409C597D0FF1FE7800060228597D074
:1044C400FF1FE780605F23AC0402B24022449244A1
:1044D4004101828009ED9707002083C7C79417051F
:1044E40000201305A59581CB13858185828017054E
:1044F40000201305A5948280170500200345A5928A
:104504008280970700209387E791C84782809707A6
:10451400002093872791884B8280970700209387F8
:104524006790DC4B88438280970700209387878FAE
:10453400D84B1C4385071CC3170500200345B58EC3
:104544009307F00F6305F50091656FE07F8182802A
:10455400011122CC06CE2E8432C6EF700049914759
:10456400B245631FF500938741879C438DC303A322
:104574000700630E030022856244F2400561028352
:104584009387C1869C4381C703A34700DDB7F240EC
:104594006244054505618280011122CC2A840355B9
:1045A400450006CE26CA4AC84EC6EF7020222DC545
:1045B4002A89834405008349C500C13D4A85EF70BB
:1045C400E07D03554400EF70803D83C70188A9CB8B
:1045D4006398970483C511882685313C19E12380AB
:1045E400018803554400EF7040409147631FF50074
:1045F400035744009707002083D727836317F700E6
:10460400FD57170700202312F782F2406244D24478
:104614004249B2490561828081499304F00F75B71C
:104624009307F00FE38FF4FA8346640003564400C3
:10463400034524004E87A685913665B779715EC619
:10464400AA8B2E8552CC56CA5AC806D622D426D254
:104654004AD04ECEAE8A328B368AEF7020177DC197
:10466400045D2A89E5C09C50614599C31305400344
:104674009C5481C751054205418163050A007105B7
:1046840042054181DC5081C75D0542054181EFE06F
:10469400AFA92A8445C96146814597D0FF1FE780A9
:1046A400008897F9FF1F83C9E97C63940900834953
:1046B4000900930700FD2300F400A947A300740137
:1046C4002301F400230364018C50231254011305C5
:1046D400840191C908C47146930A440397C0FF1F1B
:1046E400E780407D56858C5491C948C45146930A4D
:1046F400450197C0FF1FE780E07B5685630C0A00E5
:1047040008C87146D285930AC50197C0FF1FE78088
:10471400607A5685CC5099C548C85D4697C0FF1F3E
:10472400E7804079A2854E85EFE0EFAE2254B25087
:104734009254F249624AD24A424BB24B4A850259D8
:104744004561A1B3B250225492540259F249624ACB
:10475400D24A424BB24B4561828001114EC6AA89AE
:104764002E854AC806CE22CC26CA2E89EF700006B2
:1047740021C997F4FF1F83C4E46F99E083440500C3
:104784001945EFE06F9A2A8405CD8145194697C0F3
:10479400FF1FE780C078930700FD2300F400B947AA
:1047A400A30034012301F40023122401A2856244EE
:1047B400F2404249B2492685D24405616FE0AFA573
:1047C400F2406244D2444249B2490561828039715F
:1047D4005ECEAA8B2E8526DA4ED652D456D25AD025
:1047E40006DE22DC4AD8AE84328BB68A3A8ABE8987
:1047F40042C6EF60B07D21CD2A894145EFE0CF92DA
:104804002A8431C54146814597C0FF1FE780207146
:1048140017F5FF1F0345056619E1034509009307D2
:1048240000FD2300F400BD472301F400B247A300B8
:1048340074012312940023046401A3045401230586
:104844004401A30534015CC4A285EFE0CF9CF2507F
:104854006254D2544259B259225A925A025BF24BD0
:1048640021618280797126D2AA8439454AD04ECEFC
:1048740006D622D42EC6B2893689EFE0EF8A21C14A
:10488400B2459307000D2310F500B1472A84231283
:10489400B5002301F500CE851905194697C0FF1F01
:1048A400E780406123062401A2852254B2500259B4
:1048B400F24913F5F40F925445616FE0CF95B2506D
:1048C400225492540259F2494561828017F7FF1F1E
:1048D400034777559307F00F630DF706411126C27E
:1048E400AA84394522C406C64AC0EFE0EF832A846D
:1048F40039C9930700FD2300F500A30095002301A7
:10490400050097F5FF1F938565530D05194697C05C
:10491400FF1FE780205A17F9FF1F1309A950835777
:104924008900A28517F5FF1F0345F54F2315F400F1
:10493400834719002306F4002244B24092440249FA
:1049440041016FE04F8DB24022449244024941013B
:104954008280828001115AC02A8B314526CA4EC6F4
:1049640052C456C206CE22CC4AC8AE84B28A368A13
:10497400BA89EFD07FFB35CD2A842685EF60106598
:1049840011C50347C500A1476314F70417F9FF1FB6
:1049940003497949930700FD2300F4009D47A300D0
:1049A40064012301F40023129400231354012314FB
:1049B400440123153401A2856244F240D244B24931
:1049C400224A924A024B4A85424905616FE0AF840C
:1049D40017F9FF1F0349195BE31E0BFA9387C19074
:1049E4009C439C47C5DBCE865286D6852685829716
:1049F40055B7F2406244D2444249B249224A924AEB
:104A0400024B05618280011122CC2A84214506CE05
:104A14002EC6EFD07FF121C1B245930700FD2300DC
:104A2400F500C5472301F50083C73500A301F50050
:104A340083D745002312F50083C765002303F500DF
:104A440083C77500AA85A303F50022856244F2405A
:104A540005616FD05FFCF240624405618280397168
:104A640062CC2A8C594526DA4AD84ED652D456D22C
:104A74005AD05ECE06DE22DCAE8432C636C4BA8B91
:104A84003E8BC28A468A8359010403494104EFD00C
:104A9400BFE925C93246930700FDA2462300F5006D
:104AA4009547A301C500A30085012301F5002A84CD
:104AB40019461105A9C2B68597C0FF1FE780803F3C
:104AC40023066401230A24012315740123175401C6
:104AD4002318440123193401A2856254F250425927
:104AE400B259225A925A025BF24B624C2685D25436
:104AF40021616FD05FF2814597C0FF1FE78020429C
:104B0400C1B7F2506254D2544259B259225A925AFD
:104B1400025BF24B624C2161828097F7FF1F83C7CF
:104B240087308DCB4111AA8519461385818506C628
:104B340097C0FF1FE78000389385818517F5FF1F15
:104B44000345652EEFF07F8DB240138581854101C9
:104B54006FA050720145828017F7FF1F0347B72CDF
:104B64009307F00F6305F708411126C2AA8429456B
:104B740022C406C6EFD05FDB2A8429C1930700FD57
:104B84002300F500A1472301F500A300950097F742
:104B9400FF1F9387272983C72700938581851105E4
:104BA400A30FF5FE194697C0FF1FE780A030A2852A
:104BB40017F5FF1F03453527EFD0FFE517F7FF1F54
:104BC400034767268D47631FF700938701879C433C
:104BD40091CB03A38700630703002244B2409244AD
:104BE40041010283B240224492444101828017F77A
:104BF400FF1F034747238D47631AF70093870187F5
:104C04009C4389C703A38700E31D03FC8280797159
:104C140022D406D626D24AD04ECE52CC094455CD03
:104C24002A89035505002E8A5144EF60303AAA843C
:104C34004DC597F7FF1F83C7E734FD1793F7F70FA9
:104C440005474944637BF7080347C500A14763143C
:104C5400F70063140A089C5C4544C1E3916593859D
:104C640045711305C00297D0FF1FE78000D688DC8A
:104C7400AA894D443DC11306C002814597C0FF1F58
:104C8400E780E029835709009386490036852391FC
:104C9400F90071469305490036C697C0FF1FE780A7
:104CA400602189472380F90003C5C400B246035636
:104CB4000900611597F5FF1F83C5852C1335150071
:104CC400EF7010542A8463060A00D2852685EF709B
:104CD400C03C01C42685EFF04FFB2285B25022541C
:104CE40092540259F249624A4561828097F7FF1F44
:104CF40083C74729FD1793F7F70F0547637AF7082A
:104D0400894741CA011122CC26CA4AC84EC652C498
:104D140006CEAA89368AB2842E89EF60302B2A8483
:104D2400D14739C9485509C597D0FF1FE780C0D876
:104D3400F145268597C0FF1FE780002448D4CD475E
:104D440005CD8346C40021478147639FE600630D78
:104D54000A000347A5010356050193062501AA8508
:104D64004E85EF70403BAA8703474400630F090058
:104D7400136767002302E400F2406244D2444249CC
:104D8400B249224A3E850561828013674700DDB738
:104D9400C9473E8582809307000463EBA70097F719
:104DA400FF1F9387270A06053E9503550500828059
:104DB40041657D158280011122CC2A842E8526CA64
:104DC40006CEAE84EF6090201DCDB7470F009387C9
:104DD400F723094563E4870281450A85414697C064
:104DE400FF1FE780C013A685231081000A85418038
:104DF40023018100A3010100EF70502CF2406244B2
:104E0400D244056182804945D5BF97F7FF1F238AA5
:104E1400A71682806F70F038797152CC2A8A328555
:104E240022D426D24AD04ECE56CA5AC85EC606D618
:104E340062C4AE8BB28A368BBA843E89C2894684F8
:104E4400EF60D01815C92A8C63140A0213774B003B
:104E54008347450015CF93E727012302FC008DEC1F
:104E6400631C0902639A090205E8ED9B2302FC0016
:104E7400832B8C0363910B08B25022549254025931
:104E8400F249624AD24A424BB24B224C456182807B
:104E9400F59B93E70701D1B793E747002302FC0092
:104EA40001CC1C484146A2852324FC0213058C0135
:104EB40097C0FF1FE780000063930B02D5D803253A
:104EC400CC0209C597D0FF1FE78000BFF1452685B6
:104ED40097C0FF1FE780400A2326AC0251BFE309B5
:104EE40009F80325CC0209C597D0FF1FE780C0BC91
:104EF400F1454A85F1BF9DC483A70B0299EB9165E7
:104F040093853571714597D0FF1FE78000AC23A0CE
:104F1400AB0203A50B0219C57146A68597C0FF1FF6
:104F2400E78040F96388090283A74B0299EB9165F6
:104F3400938525715D4597D0FF1FE78000A923A2C3
:104F4400AB0203A54B0219C55D46CE8597C0FF1F72
:104F5400E78040F61DC483A78B0299EB9165938586
:104F64001571514597D0FF1FE78020A623A4AB02FB
:104F740003A58B0219C55146A28597C0FF1FE78080
:104F840060F32254B2509254F249B24B224CCA8676
:104F94005A860259424BD6855285D24A624A4561A5
:104FA4006FF0CFE9011126CA52C406CE22CC4AC8FA
:104FB4004EC62A8AAE84EF60700125C5AA89394598
:104FC400EFD09F962A8431CD17F9FF1F034989EA50
:104FD4006314090003C909009307000D2310F400AA
:104FE400AD472301F4009385690013053400194685
:104FF40097C0FF1FE78000EC93F714008580858835
:105004002306F400A306940023154401A2856244F8
:10501400F240D244B249224A4A85424905616FD0DE
:105024009F9FF2406244D2444249B249224A0561F8
:10503400828001114EC652C456C206CE22CC26CA64
:105044004AC8AA8A2E8AB289EF6040782DCD2A896F
:105054001305C002EFD05F8D2A8435C597F4FF1F76
:1050640083C444E199E0834409009307000D2310AD
:10507400F400E9472301F4009305690013053400A3
:10508400194697C0FF1FE780E0E2D285231554013B
:105094001305C400414697C0FF1FE780A0E1CE85F9
:1050A4001305C401414697C0FF1FE780A0E0A28515
:1050B4006244F2404249B249224A924A2685D24485
:1050C40005616FD05F95F2406244D2444249B249CF
:1050D400224A924A0561828093870186884301CDE2
:1050E400411106C697D0FF1FE780009DB24023A060
:1050F4000186410182808280011106CE22CC26CA1B
:105104004AC82EC6EF60806C39CDB24517F9FF1F2F
:10511400034949D6AA840CD5631409000349050040
:105124004145EFD07F802A841DCD9307000D2310C5
:10513400F500A5472301F50083C754009385640057
:105144001105A30FF5FE194697C0FF1FE78080D60F
:105154009C54A285F2405CC46244D2444A854249CC
:1051640005616FD05F8BF2406244D24442490561CD
:105174008280797122D406D62A842EC6EF60006517
:1051840001CDB2452285230EB1006C08EF60706D2D
:10519400B2502254456182805145DDBF6F60A079D1
:1051A400C1671387E7FF6394E5029387C1869C4335
:1051B40091EB494582804945B240224492440249D8
:1051C4004101828003A30700E30503FE028341112A
:1051D40022C426C24AC006C6FD172A892E84B28478
:1051E4006395F5029387C1869C4391CB9C4381CB05
:1051F400829711E523802189A380918875BFA685B4
:105204004A85EFE05FDF4DF9F5B72E85EF60005C6E
:105214005DD1834705000D45E39027FB2285224499
:10522400B2400249A685924441016FA0300293071F
:10523400000463E2A7064111C16722C406C626C260
:10524400FD172A8409456382F502C547AE846313BA
:10525400F4022E85EFA0900617F5FF1F130585BEF7
:1052640006042A94231094000145B2402244924437
:10527400410182809307A0036316F4002E85EFA0FA
:10528400607DD9BF9307B003E318F4FC13F5F50F61
:10529400EFA0807CD1B709458280011106CE2AC6D1
:1052A400EFE09FD7EF208033EF108060EF20E11E06
:1052B400324597F7FF1F9387E7B6130700F0239152
:1052C400E700238207007D5797F7FF1F938747CB9B
:1052D4002381E7002380A700F240954505616F40D4
:1052E400D061597193970501CAD086D6A2D4A6D2AB
:1052F400CECED2CCD6CADAC8DEC6E2C4E6C2EAC092
:105304006EDEC1872E8963D1075A17F5FF1F034547
:1053140025C7EFD0EFE78964416A856A797B2A84DF
:10532400938BD4007D1AA50A130CABFF1DE02165F5
:105334003345A900B650265496540659F649664A90
:10534400D64A464BB64B264C964C064DF25D6561EB
:105354008280834704001307200A639DE7000355F6
:10536400240097F9FF1F83C919AC2286D285EFF078
:105374002F9E59A21307100997F9FF1F83C969C00B
:105384006398E7188347140015476390E702228562
:10539400EFF08FA02285EFD04FD417F5FF1F034500
:1053A40025BEEFD0EFDE2A8451B73947639BE71857
:1053B40003554400631B55050C4483CC0500639DD1
:1053C4000C00850591C9194617F5FF1F130505A79C
:1053D40097C0FF1FE78000AE17F7FF1F034787A49E
:1053E40085476317F712638A0C0097F7FF1F238B17
:1053F40007A26685EFF08FCD71BF894717F7FF1FAE
:105404002302F7A2EFA0C06671B793872400631A42
:10541400F506832C8400638D0C0E83C70C008DE38A
:1054240083C72C0003C71C00A207D98F17F7FF1FDF
:10543400231EF79E83C73C0017F7FF1FA304F79EA4
:1054440017F7FF1F0347079E89476313F70C83C7AA
:105454000C0081CB97F7FF1F2386079C03C50C0024
:1054640051BF8D4797F5FF1F83C5D59B17F5FF1FC8
:105474000355C59B17F7FF1F2306F79AEF40F04A21
:10548400F1BF938754006318F5001C4403C507005B
:10549400EFF08FEC01B7B3078501C207C183114751
:1054A4006372F7049307ABFCAA9713970701418330
:1054B400F14763F1E7029387B4006312F50493871D
:1054C40081869C43E38807EC9C43A285E38407EC34
:1054D40082971DA0B70700189387F770B3D7E7002A
:1054E400858BB9CB938701879C43E38507EA9C436B
:1054F400E38207EA22858297E31E05E811A89387D1
:10550400C4006310F5021C4483C70700E38407E862
:105514009307F00FE380F9E8A2854E85EFD0AFCF73
:10552400ADBD9387E4006319F5009387C1869C435E
:10553400E38207E6DC4351BF93871404E301F5F8E3
:10554400C1BF3D476397E70403554400E30F75FD6E
:1055540093879401E30BF5FC93873401E31AF5FA7E
:1055640097F7FF1F83D7678C639E47019387C18694
:105574009C43E38107E2DC43E38E07E0A2851385C5
:105584003401B9B7938741879C43E38507E09C4383
:10559400E5B71307E003E39DE7F6834724000547D7
:1055A4006397E70E83476400938D0186F1E383A735
:1055B4000D00D5CB83CC0700A14903457400130D1E
:1055C4008400EA85EFE0FFE983474401A303A400D4
:1055D400835804010358E400035744002A86034512
:1055E40034003EC283572401EA86E6853EC0CE8756
:1055F400EFF0EFC68347340095E7DD478358040195
:105604000358E40083467400835544003EC2835724
:1056140024016A8705463EC06685CE87EF60804FC9
:10562400A301A40083A70D0081C71145EFF0DFAAF1
:1056340003C50188E30005D683C51188EFE0BF9B4D
:10564400E30A05D48346340093071003638AF60003
:10565400035644004E8783C501883685EFE01FB2A8
:105664002380018805BB97ECFF1F83CCDC7BA9B7A3
:10567400938701879C4397ECFF1F83CCDC7A914985
:105684008DDFDC439DDB8145014582973DB729478A
:105694006391E70C83476400138D0186C1E7832778
:1056A4000D00A5CF83CC0700A149034574009306E0
:1056B400840093772500D1C713761500930D440118
:1056C400834704028358C4010358A40103574400C8
:1056D400034534003EC28357E401E6853EC0CE87CD
:1056E400EFF0EFB78347340095E7DD478358C401F3
:1056F4000358A40183467400835544003EC2835773
:10570400E4016E8705463EC06685CE87EF60804023
:10571400A301A40083270D0001BF97ECFF1F83CCD6
:105724009C7059B7938701879C4397ECFF1F83CCE8
:105734009C6F9149BDDBDC43ADDB8145014582971C
:10574400ADB7B68536CEEFE0DFD1F2462A86B68D08
:1057540085BF0947639DE700938781869C43E38B5C
:1057640007C2DC43E38807C22285829725B12D470F
:105774006399E700938781869C43E38D07C09C4728
:10578400D5B70D476397E70022868D45035544003E
:10579400F9BE19476395E7069305610213051031B5
:1057A400EF1011582C1013052031EF1071570356C8
:1057B4006400835781020355440063E8C70083569D
:1057C40084000357610263F7E60093050002EFA02B
:1057D400E02DC9B66374E6002313E40063F4D70034
:1057E4002314F4000357C4008356A4000356840012
:1057F4008355640001488147EFA0002B61BE1D471B
:10580400E388E7D031476395E7002286B145BDBF01
:1058140035476399E700938781869C43E38C07B6F9
:10582400DC4789B739476396E7002285EF00D00348
:1058340095B63D476399E700938781869C43E38B44
:1058440007B49C4B05B741476396E7002285EF00F8
:10585400900C89B645476396E7000145EF00701B3D
:1058640015BE4947639EE700938701879C43E38104
:1058740007CADC43E38E07C881450545829749B9C9
:105884004D47639DE700938701879C43E38207C8E4
:10589400DC43E38F07C6A2850945CDB76147E39989
:1058A400E7C62286E145DDB593F7150081CF9387DE
:1058B40081869C4389C7DC4399C30145829713457C
:1058C40019008DBC93F7250089CF938701879C43EA
:1058D40091C7DC4381C7814505458297134529005B
:1058E40091BC93F745000145E38607A4938741865D
:1058F4009C4399CF854717E7FF1F2307F7529387E8
:1059040001879C4391C7DC4381C781450545829744
:1059140097E7FF1F93870751C8472C10EF60706605
:105924002810EFF08F9F97E7FF1F83D7C75381CFCE
:10593400130600643386C702914517E5FF1F03452C
:105944002564EFD0CFD813454900EDB2011122CC24
:105954002A84554506CE26CAEFF0EFC3AA84130560
:105964004002EFF04FC32AC613055002EFF0AFC256
:10597400AA86228562443246F240B3359000D2446E
:1059840005616FA08018797122D406D68D472E84C4
:10599400631FF50003D7A50083D6850003D66500F1
:1059A4000345340083D54500EFE0DFFA09A8896791
:1059B4001387D7006310E50403C5250019E585475F
:1059C400B25022543E854561828093870186944378
:1059D400FDD603C6360083C50600814802C202C054
:1059E4000148814701479106EFF06F870545EFF0C5
:1059F400AFEEF1B71387E700E303E5FC1387370144
:105A0400631AE50003C525005DD9014781460146B7
:105A1400814559BFE507E304F5FAB1476319F50079
:105A240017E5FF1F03453540EFE0FFFD49BF416720
:105A34007D178147E316E5F803C75500C947E3100E
:105A4400F7F883D6E50003D6C5000355840083D553
:105A5400A500EFA0800C41C95D45EFF0CFB333350D
:105A6400A000231CA10083454400035524003008F2
:105A7400EF50504683578101B9F36C081305103178
:105A8400EF10112A9305E10113052031EF1051297C
:105A94008357C101035784006374F7002314F4008F
:105AA4008357E1010357A40063F4E7002315F400CE
:105AB400835784000357A4006374F7002315F4008C
:105AC40003552400EFA090100357E4008356C4004C
:105AD4000356A400835584000355240001488147DC
